{
    "_format": "hh-sol-artifact-1",
    "contractName": "MockBitcoinWallet",
    "sourceName": "contracts/MockBitcoinWallet.sol",
    "abi": [
        {
            "inputs": [],
            "stateMutability": "nonpayable",
            "type": "constructor"
        },
        {
            "anonymous": false,
            "inputs": [
                {
                    "indexed": false,
                    "internalType": "address",
                    "name": "from",
                    "type": "address"
                },
                {
                    "indexed": false,
                    "internalType": "uint256",
                    "name": "amount",
                    "type": "uint256"
                }
            ],
            "name": "Received",
            "type": "event"
        },
        {
            "anonymous": false,
            "inputs": [
                {
                    "indexed": false,
                    "internalType": "address",
                    "name": "from",
                    "type": "address"
                },
                {
                    "indexed": false,
                    "internalType": "address",
                    "name": "to",
                    "type": "address"
                },
                {
                    "indexed": false,
                    "internalType": "uint256",
                    "name": "amount",
                    "type": "uint256"
                }
            ],
            "name": "Sent",
            "type": "event"
        },
        {
            "inputs": [
                {
                    "internalType": "address",
                    "name": "",
                    "type": "address"
                }
            ],
            "name": "balances",
            "outputs": [
                {
                    "internalType": "uint256",
                    "name": "",
                    "type": "uint256"
                }
            ],
            "stateMutability": "view",
            "type": "function"
        },
        {
            "inputs": [
                {
                    "internalType": "address",
                    "name": "account",
                    "type": "address"
                }
            ],
            "name": "getBalance",
            "outputs": [
                {
                    "internalType": "uint256",
                    "name": "",
                    "type": "uint256"
                }
            ],
            "stateMutability": "view",
            "type": "function"
        },
        {
            "inputs": [
                {
                    "internalType": "uint256",
                    "name": "",
                    "type": "uint256"
                }
            ],
            "name": "receive",
            "outputs": [],
            "stateMutability": "payable",
            "type": "function"
        },
        {
            "inputs": [
                {
                    "internalType": "address",
                    "name": "to",
                    "type": "address"
                },
                {
                    "internalType": "uint256",
                    "name": "amount",
                    "type": "uint256"
                }
            ],
            "name": "send",
            "outputs": [],
            "stateMutability": "nonpayable",
            "type": "function"
        }
    ],
    "bytecode": "0x608060405234801561001057600080fd5b50683635c9adc5dea000006000803373ffffffffffffffffffffffffffffffffffffffff1673ffffffffffffffffffffffffffffffffffffffff168152602001908152602001600020819055506106748061006c6000396000f3fe60806040526004361061003f5760003560e01c806327e235e314610044578063cba2534f14610081578063d0679d341461009d578063f8b2cb4f146100c6575b600080fd5b34801561005057600080fd5b5061006b600480360381019061006691906103c1565b610103565b6040516100789190610407565b60405180910390f35b61009b6004803603810190610096919061044e565b61011b565b005b3480156100a957600080fd5b506100c460048036038101906100bf919061047b565b6101ac565b005b3480156100d257600080fd5b506100ed60048036038101906100e891906103c1565b610316565b6040516100fa9190610407565b60405180910390f35b60006020528060005260406000206000915090505481565b346000803373ffffffffffffffffffffffffffffffffffffffff1673ffffffffffffffffffffffffffffffffffffffff168152602001908152602001600020600082825461016991906104ea565b925050819055507f88a5966d370b9919b20f3e2c13ff65706f196a4e32cc2c12bf57088f8852587433346040516101a192919061052d565b60405180910390a150565b806000803373ffffffffffffffffffffffffffffffffffffffff1673ffffffffffffffffffffffffffffffffffffffff16815260200190815260200160002054101561022d576040517f08c379a0000000000000000000000000000000000000000000000000000000008152600401610224906105b3565b60405180910390fd5b806000803373ffffffffffffffffffffffffffffffffffffffff1673ffffffffffffffffffffffffffffffffffffffff168152602001908152602001600020600082825461027b91906105d3565b92505081905550806000808473ffffffffffffffffffffffffffffffffffffffff1673ffffffffffffffffffffffffffffffffffffffff16815260200190815260200160002060008282546102d091906104ea565b925050819055507f3990db2d31862302a685e8086b5755072a6e2b5b780af1ee81ece35ee3cd334533838360405161030a93929190610607565b60405180910390a15050565b60008060008373ffffffffffffffffffffffffffffffffffffffff1673ffffffffffffffffffffffffffffffffffffffff168152602001908152602001600020549050919050565b600080fd5b600073ffffffffffffffffffffffffffffffffffffffff82169050919050565b600061038e82610363565b9050919050565b61039e81610383565b81146103a957600080fd5b50565b6000813590506103bb81610395565b92915050565b6000602082840312156103d7576103d661035e565b5b60006103e5848285016103ac565b91505092915050565b6000819050919050565b610401816103ee565b82525050565b600060208201905061041c60008301846103f8565b92915050565b61042b816103ee565b811461043657600080fd5b50565b60008135905061044881610422565b92915050565b6000602082840312156104645761046361035e565b5b600061047284828501610439565b91505092915050565b600080604083850312156104925761049161035e565b5b60006104a0858286016103ac565b92505060206104b185828601610439565b9150509250929050565b7f4e487b7100000000000000000000000000000000000000000000000000000000600052601160045260246000fd5b60006104f5826103ee565b9150610500836103ee565b9250828201905080821115610518576105176104bb565b5b92915050565b61052781610383565b82525050565b6000604082019050610542600083018561051e565b61054f60208301846103f8565b9392505050565b600082825260208201905092915050565b7f496e73756666696369656e742062616c616e6365000000000000000000000000600082015250565b600061059d601483610556565b91506105a882610567565b602082019050919050565b600060208201905081810360008301526105cc81610590565b9050919050565b60006105de826103ee565b91506105e9836103ee565b9250828203905081811115610601576106006104bb565b5b92915050565b600060608201905061061c600083018661051e565b610629602083018561051e565b61063660408301846103f8565b94935050505056fea2646970667358221220d963c036a52dec5eef8f59982ebf9d151b8d913c136fcc856f44503221ea5ba464736f6c63430008180033",
    "linkReferences": {},
    "deployedLinkReferences": {}
}